:100000000C94D8000C94F5000C94F5000C94F500B9
:100010000C94F5000C94F5000C94F5000C94F5008C
:100020000C94F5000C94F5000C94F5000C94F5007C
:100030000C94F5000C94F5000C94F5000C94F5006C
:100040000C94F5000C94F5000C94F5000C94F5005C
:100050000C94F5000C94F5000C94F5000C94F5004C
:100060000C94F5000C94F50067014D014D014D0114
:100070004D014D014D014D0170014D014D014D01ED
:100080004D014D014D014D0179014D014D014D01D4
:100090004D014D014D014D0182014D014D014D01BB
:1000A0004D014D014D014D018B014D014D014D01A2
:1000B0004D014D014D014D0194014D014D014D0189
:1000C0004D014D014D014D019D014D014D014D0170
:1000D0004D014D014D014D01A6014D014D014D0157
:1000E0004D014D014D014D01AF014D014D014D013E
:1000F0004D014D014D014D01B8014D014D014D0125
:100100004D014D014D014D015E01256320004E2F33
:100110004120253032580A004D5220444154412B91
:10012000522C204E414B0A004D5220444154412B49
:10013000522C2041434B0A004D5220534C412B522C
:100140002C204E414B0A004D5220534C412B522C37
:100150002041434B0A004D5420444154412B572C1D
:10016000204E414B0A004D5420444154412B572C02
:100170002041434B0A004D5420534C412B572C2017
:100180004E414B0A004D5420534C412B572C2041DB
:10019000434B0A004E4F4152422F4E414B0A0052F0
:1001A0004553544152540A0053544152540A0000DA
:1001B00011241FBECFEFD8E0DEBFCDBF11E0A0E01D
:1001C000B1E0ECE8FBE002C005900D92A431B1076C
:1001D000D9F721E0A4E1B1E001C01D92AB31B20733
:1001E000E1F70E9496020C94C4050C940000CF9392
:1001F000C82F8A3051F08091C00085FFFCCFC0939A
:10020000C60080E090E0CF91089560E070E08DE05E
:100210000E94F700F0CF1092C50089E18093C400DE
:100220001092C00088E18093C10086E08093C200F4
:1002300080E091E0909318018093170108958091D8
:10024000C00087FFFCCF8091C60008950895ECE7B9
:10025000F0E080E68083808180838BE880937A0061
:1002600008958093140108958091140108950895CC
:10027000E9EBF0E08081808380818160808382E18E
:100280008093B80084E08093BC000895482F50E02C
:10029000FA013897E135F10568F01F928F938EE0EF
:1002A00091E09F938F930E94D6020F900F900F9032
:1002B0000F900895EC5CFF4F0C94D00288E191E020
:1002C0009F938F930E94D6020F900F90089588EA13
:1002D00091E09F938F930E94D6020F900F90089504
:1002E0008FE991E09F938F930E94D6020F900F9019
:1002F000089585E891E09F938F930E94D6020F9016
:100300000F90089586E791E09F938F930E94D60205
:100310000F900F90089586E691E09F938F930E942F
:10032000D6020F900F90089586E591E09F938F93EA
:100330000E94D6020F900F90089584E991E09F9358
:100340008F930E94D6020F900F90089587E491E05A
:100350009F938F930E94D6020F900F90089588E389
:1003600091E09F938F930E94D6020F900F90089573
:1003700088E291E09F938F930E94D6020F900F9096
:10038000089584EA8093BC008091BC0087FFFCCF75
:10039000089584E98093BC008091BC0084FDFCCF6B
:1003A00008958091B900887F08958E7F6170682BD1
:1003B0006093BB0084E88093BC008091BC0087FF01
:1003C000FCCF08958093BB0084E88093BC008091AB
:1003D000BC0087FFFCCF089584EC8093BC00809123
:1003E000BC0087FFFCCF8091BB00089584E8809318
:1003F000BC008091BC0087FFFCCF8091BB000895BA
:1004000034EA20EA94E83093BC008091BC0087FF76
:10041000FCCF2093BB009093BC008091BC0087FF71
:10042000FCCF8091B900887F883169F7089594EAFC
:100430009093BC009091BC0097FFFCCF90EA909302
:10044000BB0094E89093BC009091BC0097FFFCCF58
:100450008093BB0084E88093BC008091BC0087FF40
:10046000FCCF84EA8093BC008091BC0087FFFCCF66
:1004700081EA8093BB0084E88093BC008091BC003B
:1004800087FFFCCF84E88093BC008091BC0087FF8D
:10049000FCCF8091BB0094E99093BC009091BC008C
:1004A00094FDFCCF089594EA9093BC009091BC0019
:1004B00097FFFCCF90EA9093BB0094E89093BC0028
:1004C0009091BC0097FFFCCF8093BB0084E88093A1
:1004D000BC008091BC0087FFFCCF6093BB0084E828
:1004E0008093BC008091BC0087FFFCCF84E980939F
:1004F000BC008091BC0084FDFCCF34EA20EA94E883
:100500003093BC008091BC0087FFFCCF2093BB00E0
:100510009093BC008091BC0087FFFCCF8091B90014
:10052000887F883169F7089508950895CF93DF9300
:1005300000D000D01F92CDB7DEB70E9438010E94D4
:100540000B01789485E0EEE0F1E0DE011196019078
:100550000D928A95E1F710E18AE0C82E81E0D82E4D
:10056000CE0101967C0105E0010FF70161917F0149
:10057000812F0E9453021F5F1013F7CF10E1812FCC
:100580000E9417021F928F93DF92CF920E94D60291
:100590001F5F0F900F900F900F90153181F7E0CFF4
:1005A000EE0FFF1F0590F491E02D0994A0E0B0E05C
:1005B000ECEDF2E00C949B05AE01495F5F4FDA0170
:1005C0006D917D91AD0105E111E0F801828193818A
:1005D000DC0113962C911397286013962C930E949C
:1005E000FC02D8011296ED91FC9113972381277F8D
:1005F0002383E4E00C94B705ABE0B0E0E2E0F3E085
:100600000C948D056C017B018A01FC011782168216
:10061000838181FFCCC1CE0101963C01F60193811B
:10062000F70193FD859193FF81917F01882309F460
:10063000BAC1853239F493FD859193FF81917F0191
:10064000853229F4B60190E00E94F304E7CF912CA3
:10065000212C312CFFE1F315D8F08B3279F038F4EE
:10066000803279F08332A1F4232D20611DC08D32B8
:1006700061F0803369F4232D216016C0832D8260E0
:10068000382EE32DE4603E2E2AC0F32DF8601DC005
:1006900037FC2DC020ED280F2A3040F08E32B9F4FF
:1006A00036FC81C1232D2064322E19C036FE06C0CF
:1006B0008AE0989E200D1124922E11C0EAE02E9E11
:1006C000200D1124222EF32DF0623F2E08C08C360F
:1006D00021F4832D8068382E02C0883641F4F7015A
:1006E00093FD859193FF81917F018111B3CF982F65
:1006F0009F7D9554933028F40C5F1F4F9FE399839F
:100700000DC0833631F0833771F0833509F059C05D
:1007100021C0F801808189830E5F1F4F8824839454
:10072000912C530113C02801F2E04F0E511CF80127
:10073000A080B18036FE03C0692D70E002C06FEF6B
:100740007FEFC5010E94E8044C018201F32DFF7781
:100750003F2E16C0280122E0420E511CF801A08055
:10076000B18036FE03C0692D70E002C06FEF7FEFED
:10077000C5010E94DD044C01F32DF0683F2E82017B
:1007800033FC1BC0822D90E088169906B0F4B601A8
:1007900080E290E00E94F3042A94F4CFF50137FC44
:1007A000859137FE81915F01B60190E00E94F304CC
:1007B00021102A9421E0821A91088114910471F782
:1007C000E8C0843611F0893641F5F80137FE07C0DC
:1007D00060817181828193810C5F1F4F08C06081AD
:1007E0007181072E000C880B990B0E5F1F4FF32DA4
:1007F000FF763F2E97FF09C0909580957095619583
:100800007F4F8F4F9F4FF0683F2E2AE030E0A301CB
:100810000E942F05882E861845C0853731F4232D78
:100820002F7EB22E2AE030E025C0932D997FB92E7D
:100830008F36C1F018F4883579F0B5C0803719F0DB
:10084000883721F0B0C0E92FE061BE2EB4FE0DC0A4
:10085000FB2DF460BF2E09C034FE0AC0292F26608C
:10086000B22E06C028E030E005C020E130E002C032
:1008700020E132E0F801B7FE07C06081718182811A
:1008800093810C5F1F4F06C06081718180E090E012
:100890000E5F1F4FA3010E942F05882E8618FB2D87
:1008A000FF773F2E36FE0DC0232D2E7FA22E8914FA
:1008B00058F434FE0BC032FC09C0832D8E7EA82E66
:1008C00005C0B82CA32C03C0B82C01C0B92CA4FEC1
:1008D0000FC0FE01E80DF11D8081803321F49A2DB7
:1008E000997EA92E09C0A2FE06C0B394B39404C099
:1008F0008A2D867809F0B394A3FC11C0A0FE06C02F
:10090000B21488F4280C922C9B180EC0B21460F418
:10091000B60180E290E00E94F304B394F7CFB214E2
:1009200018F42B1802C0982C212CA4FE10C0B6017C
:1009300080E390E00E94F304A2FE17C0A1FC03C074
:1009400088E790E002C088E590E0B6010CC08A2DEF
:10095000867859F0A1FE02C08BE201C080E2A7FCBC
:100960008DE2B60190E00E94F304891438F4B601D8
:1009700080E390E00E94F3049A94F7CF8A94F30105
:10098000E80DF11D8081B60190E00E94F304811012
:10099000F5CF222009F442CEB60180E290E00E9419
:1009A000F3042A94F6CFF6018681978102C08FEF77
:1009B0009FEF2B96E2E10C94A905FC010590615094
:1009C00070400110D8F7809590958E0F9F1F089565
:1009D000FC016150704001900110D8F7809590950E
:1009E0008E0F9F1F08950F931F93CF93DF93FB01EB
:1009F000238121FD03C08FEF9FEF2CC022FF16C083
:100A000046815781248135814217530744F4A081E0
:100A1000B1819D012F5F3F4F318320838C932681CD
:100A200037812F5F3F4F3783268314C08B01EC0142
:100A3000FB010084F185E02D0995892BE1F6D801B1
:100A400016968D919C911797019617969C938E936D
:100A50001697CE01DF91CF911F910F910895FA0162
:100A6000AA27283051F1203181F1E8946F936E7FED
:100A70006E5F7F4F8F4F9F4FAF4FB1E03ED0B4E0DE
:100A80003CD0670F781F891F9A1FA11D680F791F1F
:100A90008A1F911DA11D6A0F711D811D911DA11D30
:100AA00020D009F468943F912AE0269F1124301940
:100AB000305D3193DEF6CF010895462F4770405DDB
:100AC0004193B3E00FD0C9F7F6CF462F4F70405D8A
:100AD0004A3318F0495D31FD4052419302D0A9F7E5
:100AE000EACFB4E0A6959795879577956795BA95DF
:100AF000C9F700976105710508959B01AC010A2EA5
:100B000006945795479537952795BA95C9F7620F7B
:100B1000731F841F951FA01D08952F923F924F921F
:100B20005F926F927F928F929F92AF92BF92CF927D
:100B3000DF92EF92FF920F931F93CF93DF93CDB786
:100B4000DEB7CA1BDB0B0FB6F894DEBF0FBECDBFFE
:100B500009942A88398848885F846E847D848C84CF
:100B60009B84AA84B984C884DF80EE80FD800C81D8
:100B70001B81AA81B981CE0FD11D0FB6F894DEBFBB
:0C0B80000FBECDBFED010895F894FFCF2B
:100B8C000000000200000000F700000000004173AC
:040B9C006D61000087
:00000001FF
