:100000000C941B010C9438010C9438010C943801A9
:100010000C9438010C9438010C9438010C9438017C
:100020000C9438010C9438010C9438010C9438016C
:100030000C9438010C9438010C9438010C9438015C
:100040000C9438010C9438010C9438010C9438014C
:100050000C9438010C9438010C9438010C9438013C
:100060000C9438010C943801AA0190019001900180
:100070009001900190019001B301900190019001D5
:100080009001900190019001BC01900190019001BC
:100090009001900190019001C501900190019001A3
:1000A0009001900190019001CE019001900190018A
:1000B0009001900190019001D70190019001900171
:1000C0009001900190019001E00190019001900158
:1000D0009001900190019001E9019001900190013F
:1000E0009001900190019001F20190019001900126
:1000F0009001900190019001FB019001900190010D
:100100009001900190019001A101255820000A2042
:100110004D79204845582020737472696E672020FD
:100120000A0025632020000A204D7920737472692B
:100130006E6720696E2020415343494920636861FE
:1001400072200A004E6F206F662070616765733DF4
:100150002025640A006578636573732063686172A3
:1001600020286F7574206F6620626F756E647279D7
:1001700020636861727329203D2025640A00736939
:100180007A65206F66206E65775F61727261793D76
:100190002025640A004E2F4120253032580A004D98
:1001A0005220444154412B522C204E414B0A004DC9
:1001B0005220444154412B522C2041434B0A004DC4
:1001C0005220534C412B522C204E414B0A004D5291
:1001D00020534C412B522C2041434B0A004D5420BC
:1001E000444154412B572C204E414B0A004D542082
:1001F000444154412B572C2041434B0A004D54207D
:10020000534C412B572C204E414B0A004D54205348
:100210004C412B572C2041434B0A004E4F41524238
:100220002F4E414B0A00524553544152540A005339
:10023000544152540A0011241FBECFEFD8E0DEBF54
:10024000CDBF11E0A0E0B1E0ECE2FEE002C005901D
:100250000D92AE32B107D9F721E0AEE2B1E001C0B4
:100260001D92A533B207E1F70E947D030C94140799
:100270000C940000CF93C82F8A3051F08091C000B9
:1002800085FFFCCFC093C60080E090E0CF91089539
:1002900060E070E08DE00E943A01F0CF1092C5005E
:1002A00089E18093C4001092C00088E18093C1006E
:1002B00086E08093C20080E091E0909332018093C9
:1002C000310108958091C00087FFFCCF8091C60066
:1002D00008950895ECE7F0E080E6808380818083D4
:1002E0008BE880937A00089580932E010895809181
:1002F0002E0108950895E9EBF0E0808180838081EC
:100300008160808382E18093B80084E08093BC00A8
:100310000895482F50E0FA013897E135F10568F06B
:100320001F928F9385E991E09F938F930E942604FB
:100330000F900F900F900F900895EC5CFF4F0C946E
:1003400020048FE991E09F938F930E9426040F90E1
:100350000F9008958FE292E09F938F930E9426045E
:100360000F900F90089586E292E09F938F930E94E2
:1003700026040F900F9008958CE092E09F938F9346
:100380000E9426040F900F9008958DEF91E09F93A7
:100390008F930E9426040F900F9008958DEE91E0A8
:1003A0009F938F930E9426040F900F9008958DEDD8
:1003B00091E09F938F930E9426040F900F900895D1
:1003C0008BE192E09F938F930E9426040F900F90F1
:1003D00008958EEC91E09F938F930E9426040F90D6
:1003E0000F9008958FEB91E09F938F930E942604C6
:1003F0000F900F9008958FEA91E09F938F930E9442
:1004000026040F900F90089584EA8093BC00809199
:10041000BC0087FFFCCF089584E98093BC008091E5
:10042000BC0084FDFCCF08958091B900887F0895B9
:100430008E7F6170682B6093BB0084E88093BC0062
:100440008091BC0087FFFCCF08958093BB0084E8B7
:100450008093BC008091BC0087FFFCCF089584ECA2
:100460008093BC008091BC0087FFFCCF8091BB00D3
:10047000089584E88093BC008091BC0087FFFCCF86
:100480008091BB00089534EA20EA94E83093BC00E0
:100490008091BC0087FFFCCF2093BB009093BC00F1
:1004A0008091BC0087FFFCCF8091B900887F8831A4
:1004B00069F7089594EA9093BC009091BC0097FF6F
:1004C000FCCF90EA9093BB0094E89093BC0090918D
:1004D000BC0097FFFCCF8093BB0084E88093BC00F6
:1004E0008091BC0087FFFCCF84EA8093BC008091A0
:1004F000BC0087FFFCCF81EA8093BB0084E8809337
:10050000BC008091BC0087FFFCCF84E88093BC00D6
:100510008091BC0087FFFCCF8091BB0094E9909351
:10052000BC009091BC0094FDFCCF089594EA909398
:10053000BC009091BC0097FFFCCF90EA9093BB0069
:1005400094E89093BC009091BC0097FFFCCF8093FF
:10055000BB0084E88093BC008091BC0087FFFCCF87
:100560006093BB0084E88093BC008091BC0087FF4F
:10057000FCCF84E98093BC008091BC0084FDFCCF5B
:1005800034EA20EA94E83093BC008091BC0087FFF5
:10059000FCCF2093BB009093BC008091BC0087FFF0
:1005A000FCCF8091B900887F883169F70895FB01FD
:1005B000208194EA9093BC009091BC0097FFFCCFFF
:1005C00090EA9093BB0094E89093BC009091BC009B
:1005D00097FFFCCF8093BB0084E88093BC008091A0
:1005E000BC0087FFFCCFFB013196675F7F4F94E82B
:1005F0002093BB009093BC008091BC0087FFFCCF90
:100600002191E617F707A1F784E98093BC00809158
:10061000BC0084FDFCCF34EA20EA94E83093BC00AF
:100620008091BC0087FFFCCF2093BB009093BC005F
:100630008091BC0087FFFCCF8091B900887F883112
:1006400069F7089524EA2093BC002091BC0027FF9D
:10065000FCCF20EA2093BB0024E82093BC0020912B
:10066000BC0027FFFCCF6093BB0024E82093BC00B4
:100670002091BC0027FFFCCF24EA2093BC002091EE
:10068000BC0027FFFCCF21EA2093BB0024E8209385
:10069000BC002091BC0027FFFCCF50E04115510564
:1006A000D1F0BA0161507109FC0120E030E094EC16
:1006B000A4E89093BC008091BC0087FFFCCF8091A0
:1006C000BB002617370779F080832F5F3F4F3196A5
:1006D0002417350771F784E98093BC008091BC0032
:1006E00084FDFCCF0895A093BC008091BC0087FFDF
:1006F000FCCF8091BB008083E8CFCF93DF93CDB751
:10070000DEB7EE970FB6F894DEBF0FBECDBF0E94E6
:100710007B010E944E0178948FE1EEE0F1E0DE0172
:10072000909601900D928A95E1F71F928FE18F9339
:100730008EE791E09F938F930E9426041F9287E09B
:100740008F9385E591E09F938F930E9426041F92DB
:1007500083E08F9384E491E09F938F930E9426041B
:10076000BE01605E7F4F80E10E94D702BE01685DDE
:100770007F4F88E10E94D702BE01605D7F4F80E21B
:100780000E94D7027E0188E3E80EF11C0FB6F894B0
:10079000DEBF0FBECDBF08E210E0F70161917F011F
:1007A00070E0C8010E9496020F5F1F4F0F321105C3
:1007B000A1F74FE160E1CE0101960E94220387E29A
:1007C00091E09F938F930E9426048E010F5F1F4F2D
:1007D0006E01FFE1CF0ED11C0F900F90780192E2D5
:1007E000A92E91E0B92EF70181917F011F928F937D
:1007F000BF92AF920E9426040F900F900F900F901F
:10080000CE14DF0481F78EE091E09F938F930E94D6
:1008100026040F900F908AE0E82E81E0F82EF80170
:1008200081918F011F928F93FF92EF920E94260475
:100830000F900F900F900F90C016D10681F7FFCF49
:10084000EE0FFF1F0590F491E02D0994A0E0B0E0B9
:10085000ECE2F4E00C94EB06AE01495F5F4FDA0185
:100860006D917D91AD010FE211E0F80182819381DC
:10087000DC0113962C911397286013962C930E94F9
:100880004C04D8011296ED91FC9113972381277F98
:100890002383E4E00C940707ABE0B0E0E2E5F4E08A
:1008A0000C94DD066C017B018A01FC011782168223
:1008B000838181FFCCC1CE0101963C01F601938179
:1008C000F70193FD859193FF81917F01882309F4BE
:1008D000BAC1853239F493FD859193FF81917F01EF
:1008E000853229F4B60190E00E944306E7CF912CAF
:1008F000212C312CFFE1F315D8F08B3279F038F44C
:10090000803279F08332A1F4232D20611DC08D3215
:1009100061F0803369F4232D216016C0832D82603D
:10092000382EE32DE4603E2E2AC0F32DF8601DC062
:1009300037FC2DC020ED280F2A3040F08E32B9F45C
:1009400036FC81C1232D2064322E19C036FE06C02C
:100950008AE0989E200D1124922E11C0EAE02E9E6E
:10096000200D1124222EF32DF0623F2E08C08C366C
:1009700021F4832D8068382E02C0883641F4F701B7
:1009800093FD859193FF81917F018111B3CF982FC2
:100990009F7D9554933028F40C5F1F4F9FE39983FC
:1009A0000DC0833631F0833771F0833509F059C0BB
:1009B00021C0F801808189830E5F1F4F88248394B2
:1009C000912C530113C02801F2E04F0E511CF80185
:1009D000A080B18036FE03C0692D70E002C06FEFC9
:1009E0007FEFC5010E9438064C018201F32DFF778D
:1009F0003F2E16C0280122E0420E511CF801A080B3
:100A0000B18036FE03C0692D70E002C06FEF7FEF4A
:100A1000C5010E942D064C01F32DF0683F2E820186
:100A200033FC1BC0822D90E088169906B0F4B60105
:100A300080E290E00E9443062A94F4CFF50137FC4F
:100A4000859137FE81915F01B60190E00E944306D7
:100A500021102A9421E0821A91088114910471F7DF
:100A6000E8C0843611F0893641F5F80137FE07C039
:100A700060817181828193810C5F1F4F08C060810A
:100A80007181072E000C880B990B0E5F1F4FF32D01
:100A9000FF763F2E97FF09C09095809570956195E0
:100AA0007F4F8F4F9F4FF0683F2E2AE030E0A30129
:100AB0000E947F06882E861845C0853731F4232D85
:100AC0002F7EB22E2AE030E025C0932D997FB92EDB
:100AD0008F36C1F018F4883579F0B5C0803719F039
:100AE000883721F0B0C0E92FE061BE2EB4FE0DC002
:100AF000FB2DF460BF2E09C034FE0AC0292F2660EA
:100B0000B22E06C028E030E005C020E130E002C08F
:100B100020E132E0F801B7FE07C060817181828177
:100B200093810C5F1F4F06C06081718180E090E06F
:100B30000E5F1F4FA3010E947F06882E8618FB2D93
:100B4000FF773F2E36FE0DC0232D2E7FA22E891457
:100B500058F434FE0BC032FC09C0832D8E7EA82EC3
:100B600005C0B82CA32C03C0B82C01C0B92CA4FE1E
:100B70000FC0FE01E80DF11D8081803321F49A2D14
:100B8000997EA92E09C0A2FE06C0B394B39404C0F6
:100B90008A2D867809F0B394A3FC11C0A0FE06C08C
:100BA000B21488F4280C922C9B180EC0B21460F476
:100BB000B60180E290E00E944306B394F7CFB214EE
:100BC00018F42B1802C0982C212CA4FE10C0B601DA
:100BD00080E390E00E944306A2FE17C0A1FC03C080
:100BE00088E790E002C088E590E0B6010CC08A2D4D
:100BF000867859F0A1FE02C08BE201C080E2A7FC1A
:100C00008DE2B60190E00E944306891438F4B601E3
:100C100080E390E00E9443069A94F7CF8A94F30110
:100C2000E80DF11D8081B60190E00E94430681101D
:100C3000F5CF222009F442CEB60180E290E00E9476
:100C400043062A94F6CFF6018681978102C08FEF82
:100C50009FEF2B96E2E10C94F906FC0105906150A0
:100C600070400110D8F7809590958E0F9F1F0895C2
:100C7000FC016150704001900110D8F7809590956B
:100C80008E0F9F1F08950F931F93CF93DF93FB0148
:100C9000238121FD03C08FEF9FEF2CC022FF16C0E0
:100CA00046815781248135814217530744F4A0813E
:100CB000B1819D012F5F3F4F318320838C9326812B
:100CC00037812F5F3F4F3783268314C08B01EC01A0
:100CD000FB010084F185E02D0995892BE1F6D8010F
:100CE00016968D919C911797019617969C938E93CB
:100CF0001697CE01DF91CF911F910F910895FA01C0
:100D0000AA27283051F1203181F1E8946F936E7F4A
:100D10006E5F7F4F8F4F9F4FAF4FB1E03ED0B4E03B
:100D20003CD0670F781F891F9A1FA11D680F791F7C
:100D30008A1F911DA11D6A0F711D811D911DA11D8D
:100D400020D009F468943F912AE0269F112430199D
:100D5000305D3193DEF6CF010895462F4770405D38
:100D60004193B3E00FD0C9F7F6CF462F4F70405DE7
:100D70004A3318F0495D31FD4052419302D0A9F742
:100D8000EACFB4E0A6959795879577956795BA953C
:100D9000C9F700976105710508959B01AC010A2E02
:100DA00006945795479537952795BA95C9F7620FD9
:100DB000731F841F951FA01D08952F923F924F927D
:100DC0005F926F927F928F929F92AF92BF92CF92DB
:100DD000DF92EF92FF920F931F93CF93DF93CDB7E4
:100DE000DEB7CA1BDB0B0FB6F894DEBF0FBECDBF5C
:100DF00009942A88398848885F846E847D848C842D
:100E00009B84AA84B984C884DF80EE80FD800C8135
:100E10001B81AA81B981CE0FD11D0FB6F894DEBF18
:0C0E20000FBECDBFED010895F894FFCF88
:100E2C0000000002000000003A01000000004865CC
:100E3C007265206920616D207374756479696E67C1
:0E0E4C0020494F542070726F6772616D000074
:00000001FF
